:100000000C942A000C9448030C9447000C9447006D
:100010000C9447000C9447000C9447000C94470044
:100020000C9447000C9447000C9447000C94470034
:100030000C9447000C9447000C9447000C94470024
:100040000C9447000C9447000C9447000C94470014
:100050000C94470011241FBECFE5D8E0DEBFCDBF12
:1000600010E0A0E6B0E0EEEBF6E002C005900D92E5
:10007000A236B107D9F720E0A2E6B0E001C01D9298
:10008000AC36B207E1F70E9456030C945D030C9462
:10009000000040E062E081E390E00C94410162E006
:1000A00080E390E00E94230190E0089541E060E049
:1000B0008AE390E00E94410141E061E08AE390E040
:1000C0000E94410141E062E08AE390E00E94410128
:1000D00041E060E087E390E00E94410141E061E09F
:1000E00087E390E00E94410141E062E087E390E015
:1000F0000C944101009719F441E060E005C08130A3
:10010000910529F441E061E08BE390E018C0823072
:10011000910519F441E062E0F7CF8330910519F4BD
:1001200041E060E00AC08430910519F441E061E0EB
:1001300004C0059731F441E062E088E390E00C945C
:1001400051010895009719F440E060E005C0813046
:10015000910529F440E061E08BE390E018C0823023
:10016000910519F440E062E0F7CF8330910519F46E
:1001700040E060E00AC08430910519F440E061E09D
:1001800004C0059731F440E062E088E390E00C940D
:1001900051010895009711F460E004C08130910589
:1001A00021F461E08BE390E014C08230910511F4FA
:1001B00062E0F8CF8330910511F460E008C084302C
:1001C000910511F461E003C0059729F462E088E32A
:1001D00090E00C94360108950E94560083E090E070
:1001E0000E947A002FE38DE093E021508040904000
:1001F000E1F700C0000083E090E00E94A2002FE33E
:100200008DE093E0215080409040E1F700C0000075
:1002100083E090E00E94CA002FE38DE093E021503C
:1002200080409040E1F700C0000083E090E00E9431
:10023000CA002FE38DE093E0215080409040E1F729
:1002400000C000000895FC01208181E090E0062EAE
:1002500002C0880F991F0A94E2F730E082239323AB
:1002600002C0959587956A95E2F70895FC01408153
:1002700021E030E001C0220F6A95EAF724272083AD
:100280000895FC01808121E030E001C0220F6A95D1
:10029000EAF7413011F4282B02C02095282320834F
:1002A00008950C944101D09AD89A2FE33DE083E061
:1002B000215030408040E1F700C00000D8989FE70F
:1002C0002AE136E0915020403040E1F700C00000C4
:1002D00091E08BB389278BBB8FE926E831E0815011
:1002E00020403040E1F700C00000F3CFD09A8A9858
:1002F0002FE986E891E0215080409040E1F700C06E
:1003000000008299F5CFD89AF3CF80E48BBF83E0C9
:1003100085BF7894089581E090E00E94CA0080E053
:1003200090E00E94A20082E090E00C94A20084E0A1
:1003300090E00E94CA0083E090E00E94A20085E065
:1003400090E00C94A2000E9456000E9449000E9476
:10035000850110926900109268001092630010925B
:100360006200089580E090E00E94A20081E090E0A9
:100370000E94A20082E090E00E94A20083E090E050
:100380000E94A20084E090E00E94A20085E090E03C
:100390000C94A200009759F480E090E00E947A004B
:1003A00081E090E00E94A20082E090E011C08130E4
:1003B000910511F40C948B01029761F482E090E0B6
:1003C0000E947A0080E090E00E94A20081E090E02C
:1003D0000C94A2000895CF93DF93C0916800D09150
:1003E0006900C130D10569F128F0C230D10509F4A6
:1003F00060C090C080E090E00E94CA012FE382E4D8
:100400009FE0215080409040E1F700C0000081E073
:1004100090E09093670080936600109265001092C0
:1004200064002091600030916100232B09F072C0BC
:10043000E7EAF1E63197F1F700C0000024E030E090
:100440005DC0CAE00E948B01FFE926E881E0F1501F
:1004500020408040E1F700C0000020916000309112
:1004600061002115310559F4809164009091650077
:10047000029741F4109267001092660009C0C150C3
:1004800009F7F2CF82E090E09093670080936600D6
:1004900081E090E09093650080936400232BD1F578
:1004A000E7EAF1E63197F1F700C0000025E030E01F
:1004B00025C082E090E00E94CA01FFE322E48FE0C1
:1004C000F15020408040E1F700C0000081E090E062
:1004D0009093670080936600D0936500C09364009A
:1004E0002091600030916100232BA1F4E7EAF1E64E
:1004F0003197F1F700C0000023E030E0309367004F
:1005000020936600909361008093600090936B004D
:1005100080936A00809166009091670090936900D3
:1005200080936800DF91CF910895009759F483E09C
:1005300090E00E947A0084E090E00E94A20085E0B2
:1005400090E011C08130910511F40C94970102974D
:1005500061F485E090E00E947A0084E090E00E94DF
:10056000A20083E090E00C94A2000C94B201CF931F
:10057000809168009091690084309105D9F040F431
:10058000039709F05DC080E090E00E94950237C0BB
:100590008530910509F443C0069709F051C00E94C7
:1005A000B201109267001092660010926B001092D8
:1005B0006A0046C082E090E00E9495022FE382E448
:1005C0009FE0215080409040E1F700C00000CAE069
:1005D0000E948B010E9497012FE986E891E021504B
:1005E00080409040E1F700C00000C15089F780E0F2
:1005F00090E00E94950282E090E00E94CA012FE301
:1006000082E49FE0215080409040E1F700C000006C
:1006100086E090E0909367008093660011C0CAE086
:100620000E948B010E9497012FE986E891E02150FA
:1006300080409040E1F700C00000C15089F7D7CF5B
:1006400080916A0090916B009093630080936200A8
:100650008091660090916700909369008093680094
:10066000CF9108958091620090916300009729F0E6
:10067000019729F40E94B70202C00E94EB01809109
:100680006A0090916B0090936300809362000895DC
:100690001F920F920FB60F921124109261001092C8
:1006A00060000F900FBE0F901F9018950E94A3013D
:0E06B0000E94B2010E943203FDCFF894FFCFEA
:0206BE00010039
:00000001FF
