:100000000C942A000C94E0020C9447000C944700D6
:100010000C9447000C9447000C9447000C94470044
:100020000C9447000C9447000C9447000C94470034
:100030000C9447000C9447000C9447000C94470024
:100040000C9447000C9447000C9447000C94470014
:100050000C94470011241FBECFE5D8E0DEBFCDBF12
:1000600010E0A0E6B0E0EEEEF5E002C005900D92E3
:10007000A236B107D9F720E0A2E6B0E001C01D9298
:10008000AC36B207E1F70E94EE020C94F5020C9434
:10009000000040E062E081E390E00C940A0162E03D
:1000A00080E390E00E94EC0090E0089541E060E081
:1000B0008AE390E00E940A0141E061E08AE390E077
:1000C0000E940A0141E062E08AE390E00E940A0196
:1000D00041E060E087E390E00E940A0141E061E0D6
:1000E00087E390E00E940A0141E062E087E390E04C
:1000F0000C940A01009719F441E060E005C08130DA
:10010000910529F441E061E08BE390E018C0823072
:10011000910519F441E062E0F7CF8330910519F4BD
:1001200041E060E00AC08430910519F441E061E0EB
:1001300004C0059731F441E062E088E390E00C945C
:100140001A010895009719F440E060E005C081307D
:10015000910529F440E061E08BE390E018C0823023
:10016000910519F440E062E0F7CF8330910519F46E
:1001700040E060E00AC08430910519F440E061E09D
:1001800004C0059731F440E062E088E390E00C940D
:100190001A010895009711F460E004C081309105C0
:1001A00021F461E08BE390E014C08230910511F4FA
:1001B00062E0F8CF8330910511F460E008C084302C
:1001C000910511F461E003C0059729F462E088E32A
:1001D00090E00C94FF000895FC01208181E090E004
:1001E000062E02C0880F991F0A94E2F730E082239E
:1001F000932302C0959587956A95E2F70895FC01CF
:10020000408121E030E001C0220F6A95EAF72427FF
:1002100020830895FC01808121E030E001C0220F9D
:100220006A95EAF7413011F4282B02C02095282363
:10023000208308950C940A0180E48BBF83E085BF7E
:100240007894089581E090E00E947A0080E090E048
:100250000E94A20082E090E00C94A20084E090E072
:100260000E947A0083E090E00E94A20085E090E086
:100270000C94A200809168009091690008950E94FA
:1002800056000E9449000E941C01109269001092C1
:1002900068001092630010926200089580E090E080
:1002A0000E94A20081E090E00E94A20082E090E023
:1002B0000E94A20083E090E00E94A20084E090E00F
:1002C0000E94A20085E090E00C94A200009759F4EF
:1002D00080E090E00E947A0081E090E00E94A2001D
:1002E00082E090E011C08130910511F40C9422015C
:1002F000029761F482E090E00E947A0080E090E052
:100300000E94A20081E090E00C94A2000895CF9397
:10031000DF93C0916800D0916900C130D10581F1AF
:1003200028F0C230D10509F460C093C080E090E0AD
:100330000E9466012FE736E948E9215030404040ED
:10034000E1F700C0000081E090E0909367008093A7
:100350006600109265001092640020916000309158
:100360006100232B09F075C02FE33DE043E02150ED
:1003700030404040E1F700C0000024E030E05DC0C4
:100380000E9422018FE796E928E9815090402040A1
:10039000E1F700C000008091640090916500029731
:1003A00029F4109267001092660006C082E090E087
:1003B000909367008093660081E090E090936500E1
:1003C000809364002091600030916100232B09F03C
:1003D00040C03FE34DE023E0315040402040E1F792
:1003E00000C0000025E030E028C082E090E00E94DC
:1003F00066013FE746E988E9315040408040E1F737
:1004000000C0000081E090E0909367008093660058
:10041000D0936500C093640020916000309161002A
:10042000232BB9F42FE33DE043E02150304040401E
:10043000E1F700C0000023E030E030936700209334
:100440006600909361008093600090936B008093AE
:100450006A00809166009091670090936900809394
:100460006800DF91CF910895009759F483E090E000
:100470000E947A0084E090E00E94A20085E090E073
:1004800011C08130910511F40C942E01029761F492
:1004900085E090E00E947A0084E090E00E94A20053
:1004A00083E090E00C94A2000C944E0180916800CF
:1004B000909169008430910559F140F4039709F057
:1004C00058C080E090E00E94340244C0853091051D
:1004D00061F1069709F04DC082E090E00E9434027D
:1004E00080E090E00E9466012FE786E998E92150BC
:1004F00080409040E1F700C000000E944E01109241
:1005000067001092660010926B0010926A0031C072
:1005100082E090E00E9434022FE786E998E92150BA
:1005200080409040E1F700C000000E942E010E9430
:1005300022012FE786E998E9215080409040E1F7B9
:1005400000C0000080E090E00E94340282E090E071
:100550000E9466012FE786E998E92150804090408B
:10056000E1F700C0000086E090E090936700809380
:10057000660080916A0090916B0090936300809375
:10058000620080916600909167009093690080936B
:10059000680008958091620090916300009729F0AF
:1005A000019729F40E94560202C00E94870180919F
:1005B0006A0090916B0090936300809362000895AD
:1005C0001F920F920FB60F92112410926100109299
:1005D00060000F900FBE0F901F9018950E943F0172
:0E05E0000E944E010E94CA02FDCFF894FFCF88
:0205EE0001000A
:00000001FF
