:100000000C942A000C9434000C9434000C943400AA
:100010000C9434000C9434000C9434000C94340090
:100020000C9434000C9434000C9434000C94340080
:100030000C9434000C9434000C9434000C94340070
:100040000C9434000C9434000C9434000C94340060
:100050000C94340011241FBECFE5D8E0DEBFCDBF25
:100060000E9466000C947C000C940000FC0120812E
:1000700081E090E0062E02C0880F991F0A94E2F7F3
:1000800030E08223932302C0959587956A95E2F725
:100090000895FC01408121E030E001C0220F6A9503
:1000A000EAF7242720830895FC01808121E030E0D5
:1000B00001C0220F6A95EAF7413011F4282B02C0E3
:1000C00020952823208308950C94540041E060E09B
:1000D0008AE390E00E94540060E08BE390E00E948D
:1000E00049002AE230E58EEF90E021503040804018
:0C00F0009040D9F70000F0CFF894FFCF4B
:00000001FF
